:101123005554432054696D653A20002020004C61DA
:10113300743A2000252E303566004C6F6E673A20D6
:1011430000416C743A2000252E32660025643A254E
:05115300643A25640070
:0312CC00010A0014
:100B8A001211B11212BB1212C77E007F0F7D007BB9
:100B9A00007A0079321206A07BFF7A117923E4FDEC
:100BAA007F011210921200038F258E248D238C222E
:100BBA00120FA17B007A0079C91211867BFF7A1184
:100BCA00792E1211867BFF7A117931E4FD7F0212A8
:100BDA0010927865E6FF1211FF8F298E288D278CD7
:100BEA00261210278F298E288D278C26754CFF7583
:100BFA004D11754E378F528E518D508C4F7B007A26
:100C0A000079321207777B007A0079321211867ED8
:100C1A00007F0F7D007B007A0079321206A07BFFED
:100C2A007A11793DE4FD7F031210927867E6FF128C
:100C3A0012228F2D8E2C8D2B8C2A1210278F2D8EFF
:100C4A002C8D2B8C2A754CFF754D11754E378F5292
:100C5A008E518D508C4F7B007A0079321207777B48
:100C6A00007A0079321211867E007F0F7D007B00A8
:100C7A007A0079321206A07BFF7A117944E4FD7F6B
:100C8A0004121092786CE6FF1212458F318E308D65
:100C9A002F8C2E754CFF754D11754E4A8F528E5101
:100CAA008D508C4F7B007A0079321207777B007A5D
:090CBA00007932121186020B933D
:10000300E4FF74792FF8E6FE642C600974412FF83D
:0E001300A6060F80ED7B007A007941120DA940
:0100210022BC
:1011FF00EF04FFE4FE74792FF8E6FD642C600A74A7
:10120F00412EF8A6050E0F80EC7B007A0079411273
:02121F0010DBE2
:0112210022AA
:10122200EF04FFE4FE74792FF8E6FD642C600A7483
:10123200412EF8A6050E0F80EC7B007A0079411250
:0212420010DBBF
:011244002287
:10124500EF04FFE4FE74792FF8E6FD642C600A7460
:10125500412EF8A6050E0F80EC7B007A007941122D
:0212650010DB9C
:011267002264
:080FA1008F448E438D428C4108
:100FA900E47B107A27F9F81205CA8E458F46E47B4F
:100FB900107A27F9F8AF44AE43AD42AC411205CAE5
:100FC900AC00AD01AE02AF03E47B64FAF9F8120597
:100FD900CA8E478F48E47B107A27F9F8AF44AE43AD
:100FE900AD42AC411205CAAC00AD01AE02AF03E49B
:100FF9007B64FAF9F81205CAAE02AF03754CFF75A6
:101009004D11754E4F85454F854650854751854849
:0E101900528E538F547B007A0079C9020777FC
:10102700E4FBFA79C878421201218F448E438D423E
:101037008C411201FCAB07AA06EE3395E08F4C8E6C
:101047004BF54AF549AD03AC02EC1201C3A804A95C
:1010570005AA06AB07AF44AE43AD42AC4112002927
:101067007B9A7A997919783F1201218F488E478D9B
:10107700468C45AF4CAE4BAD4AAC49EC1201BEAB0A
:0A10870048AA47A946A84512002D0B
:01109100223C
:03002300020E8743
:100E8700C0E0C0D075D000C000C004C005C006C017
:010E97000753
:100E980030986BC2AFAF99BF240E75080075090072
:100EA800750A00750B008052E50AB40121BF2C0CAD
:100EB800AE09AD0B050B74652DF8A6060509E50905
:100EC800AC0870020508142479F8A607802C78D895
:100ED800E6B4471908E6B4471408E6B4410F750AA2
:100EE8000178D87600087600087600800D78D9E673
:0E0EF80018F678DAE618F608A607C298D2AF08
:0F0F0600D007D006D005D004D000D0D0D0E03234
:10128C008FA0C290121158C2927F057E000211608D
:10129C008FA0D290121158C2927F057E000211606D
:1011B1007F1E7E001211607F3812128C7F0C12127A
:1011C1008C7F0612128C7F0112128C7F037E00121B
:0711D10011607F8002128C07
:061186008B468A478948F0
:10118C00E4F549F54AAB46AA47A948854A82854900
:10119C008312054FFF600D12129C054AE54A70E55B
:0411AC00054980E190
:0111B000221C
:101092008F418D428B438A448945E541B40108E57D
:1010A20042540F44808025E541B40208E542540FC2
:1010B20044C08018E541B40308E542540F449480CB
:1010C2000BE541B4040AE542540F44D4FF12128CDA
:0910D200AB43AA44A945021186B2
:10127B007F0112128C7F057E001211607F8002129B
:01128B008CD6
:08115800C291D2927F017E00DA
:10116000E4FDFCC3ED9FEE6480F8EC6480985015BC
:10117000E4FBFA0BBB00010AEB64704A70F50DBD8D
:0511800000010C80DEFF
:011185002247
:0512C700D2AFD2AC2201
:0C12BB00758920758DFD759850D28E222B
:10002600020268E86480F8E933E83360110460F09E
:10003600ED33EC337009E8FCE9FDEAFEEBFF220440
:1000460060DED3EB9FEA9EE99DE8C2E78CF0C2F73B
:1000560095F0400CE8CCF8E9CDF9EACEFAEBCFFB07
:1000660012023385D0F05804700320D5B3E804702B
:10007600075002B2D502027292D5EC0460F7E4CCC6
:10008600C0E0C398F8603B94186008400DD0E0FBD0
:1000960002024AE4FBFAC9FC8028E830E406E4C917
:1000A600FBE4CAFCE830E305E4C9CACBFCE8540724
:1000B6006010F8C3E913F9EA13FAEB13FBEC13FC2F
:1000C600D8F130F52FC3E49CFCEF9BFFEE9AFEEDD2
:1000D60099FDD0E0FBEF4E4D4C701222DB0302027D
:1000E6006FEC2CFCEF33FFEE33FEED33FDED30E726
:1000F600EB02024AEF2BFFEE3AFEED39FDD0E0FBB4
:1001060050130BBB0003020272ED13FDEE13FEEF5C
:0801160013FFEC13FC02024A86
:10011E00020272EC5D046005E85904700302026885
:10012E00120233580460F6EC4860F2EC7004FDFEE7
:10013E00FF22C860DB2481C85009C39860025006B4
:10014E0002026F9850CAF582E9294B4A7005AB82BC
:10015E0002025E75F0007C1A7880C3EF9BEE9AED7A
:10016E0099400DC3EF9BFFEE9AFEED99FDE842F02C
:10017E00DC23ACF0D0E0FFD0E0FED0E0FDAB82207F
:10018E00E7101BEB60BAEC2CFCEF33FFEE33FEED09
:10019E0033FD02024AE803F830E705C0F075F000BF
:1001AE00EF2FFFEE33FEED33FD40B830E7C280AAED
:1001BE0075F020800E75F010800575F0087D007EBC
:1001CE00007F003392D530D50312065CEC3340101D
:1001DE00EF33FFEE33FEED33FDEC33FCD5F0ED22C5
:0E01EE00E5F0247EA2D513CC92E7CDCEFF2201
:1001FC00EDD2E7CD33EC3392D524814006E4FFFEFB
:10020C00FDFC22FCE4CFCECDCC24E0501174FF8059
:10021C00EDC3CC13CCCD13CDCE13CECF13CF0470F6
:07022C00F030D5DE02065C94
:10071B00E560244CF8E60560227849300702784CF6
:10072B00E475F00112066A0205362000EB7F2ED22B
:10073B00008018EF540F2490D43440D4FF30040BB6
:10074B00EF24BFB41A0050032461FFE5616002156A
:10075B00610564E5647002056330070D7849E47543
:10076B00F00112066AEF02057C0211D87403D2075E
:10077B008003E4C207F5608B498A4A894BE4F56133
:10078B00F563F564E56160077F2012075680F57508
:10079B0062FFC201C200C202C203C205C206C20886
:1007AB00120724FF700D3007057F00120767AF6437
:1007BB00AE6322B4255FC2D5C204120724FF24D036
:1007CB00B40A00501A75F00A786130D50508B6FFE7
:1007DB000106C6A426F620D5047002D20380D924C4
:1007EB00CFB41A00EF5004C2E5D204020A54D2016E
:1007FB0080C6D20080C0D20280BCD2D580BAD205CE
:10080B0080B47F201207562002077401B5610040A7
:10081B00F112071BFF12075602078FD208D2068070
:10082B009512071BFB12071BFA12071BF94A4B7099
:10083B0006794B7A0B7BFF20022EE561602A7E0046
:10084B008E8275830012054F60060EEE656270F0A6
:10085B00C2D5EBC0E0EAC0E0E9C0E0EE120AB4D0CA
:10086B00E0F9D0E0FAD0E0FB120536FF60AAEBC04E
:10087B00E0EAC0E0E9C0E0120756D0E02401F9D06D
:10088B00E03400FAD0E0FBE5620460DCD562D9808D
:10089B0087D20280A2120A9760F7E56270010412F8
:1008AB00027DA962600DE562600914F562120B3ED0
:1008BB00EF60F3EA30E702F404C3995077EAF425CA
:1008CB00620430E701E404F562800D120A9760C1FF
:1008DB00EA0562256212027DEA785FF630E701E4F1
:1008EB00256204D5620420050114120AB4E4C0E0A9
:1008FB00120B3E785FE6601320E70714F612073EF3
:10090B00802204F6D0E014C0E07F0012073EE562BF
:10091B0060071207351562800B300503120735D0BF
:10092B00E002078FD0E00480C5120A9760A0E56251
:10093B000412027D785FEAF6E5622005026001048D
:05094B002404120AB4AF
:1009500074FF04C0E0120B3E12073EE56220050260
:100960006003120735D0E0B562E87F45120748788A
:100970005FE67F2B30E7047F2DF404C0E0120756BA
:10098000D0E075F00A84C0F012073FD0E012073FB4
:1009900002078F791080027908C206C2088008D247
:1009A000D5790A8004790AC2D5E562047002F5623D
:1009B000E4FAFDFEFF12071BFC7B0820011312075F
:1009C0001BFD7B1030000A12071BFE12071BFF7B6A
:1009D00020EC3382D592D55013C3E43000069FFF3C
:1009E000E49EFEE42001039DFDE49CFCE4CBF8C200
:1009F00001EC700CCFCECDCCE824F8F870F3801762
:100A0000C3EF33FFEE33FEED33FDEC33FCEB33FB92
:100A1000994002FB0FD8E9EB300105F8D0E0C4485B
:100A2000B201C0E00AEC4D4E4F78207B0070C2EA64
:100A3000B5620040BCC0E0120AB6D0F0D0E02001A0
:100A400004C4C0E0C4B201C0F012073FD0F0D5F03A
:100A5000EB02078F12067A082C5309935807FD4CB6
:100A600007F94209974F099F44099F490812430912
:100A7000A55508D64609344508A0470B6B50080118
:100A80002D08052E08282B0809230826200B542A98
:100A900007C14800000820E562B4FF037562061232
:100AA000071BFC12071BFD12071BFE12071BFF781A
:100AB000580202AC790AA2D5200314300509B910F6
:100AC000020404B9080104A2D52006025001042042
:100AD00002689202B561005034C0E07F20300319F3
:100AE0007F30A20272067205500F120B0DC202C2B5
:100AF00006C205C2087F30800F300503E9C0E0124E
:100B00000756300503D0E0F9D0E0B561CC300517C9
:100B10007F30B9100C1207567F583004077F788059
:100B200003B908031207563002057F2D0207567FCE
:100B3000202008F87F2B2006F322920280CF7F002E
:100B4000B4070050052458F8E6FF22286E756C6C37
:100B50002900D20112071B3001F8C201786130D59B
:100B60000108F60207C12D5043495812071B240300
:100B7000B405004001E4900B6693120747743A12E3
:0A0B80000747D203756104020993D0
:1010DB00D2008B508A518952121117C0E0FF1212A5
:1010EB0068D0E040F3120CD6400122ECC0E0EDC01A
:1010FB00E0EEC0E0EFC0E0121117D0F0AFF0D0F08F
:10110B00AEF0D0F0ADF0D0F0ACF080D9E475F001DA
:08111B00785012066A02053645
:10023300E9D2E7C933E833F892D5EDD2E7CD33EC11
:0702430033FC5002B2D5228A
:10024A00EC30E7100FBF000C0EBE00080DBD000415
:10025A000BEB6014A2D5EB13FCED92E7FD2274FFC1
:10026A00FCFDFEFF22E480F8A2D574FF13FC7D801A
:03027A00E480EF2E
:10027D00F920E72824F950037907E4F42402FB1848
:10028D00DBFDE624FB5014E9600DE4F618E604F6F8
:0F029D00B40A08E4F6D9F57401F60A22C2D52294
:1002AC00ED33EC3392D5FA602AB4FF33EDC2E77B21
:1002BC00FF60067A0279D1E4227A0279DA20D50439
:1002CC007A0279D5224E614E002B494E46002D49BB
:1002DC004E4600E47A08F608DAFC7B00740722E844
:1002EC00C0E0ECC0E0EDC0E0EEC0E0EFC0E0EA75CD
:1002FC00F010A4CAABF075F04DA42BFBE435F0FC68
:10030C00EA2410FAEB34C5FBEC34D9FCEDC2E7FF60
:10031C0075F056A4F42411C5F0F434C58FF0A42A5A
:10032C00E5F03BE43CF620E7141204F6D0E0FFD0F5
:10033C00E0FED0E0FDD0E0FC1201218014F40412A8
:10034C0004F6D0E0FFD0E0FED0E0FDD0E0FC1203DC
:10035C00AFD0E0F8E6FAEDD2E7CD33EC332482FBF4
:10036C00E4C3CF33CFCE33CECD33CD33DBF37B07EA
:10037C0075F00A846004F6081B0AE5F0F6088FF0A5
:10038C00740AA4FFACF08EF0740AA42CFEACF050EE
:10039C00010C8DF0740AA42CFDE435F0F608DBDEBC
:0303AC00740722B1
:100CC300C201C202C203C204F9E4F553F554FCFDA8
:100CD300FEFFE91000EA20030CB42D04D203D32253
:100CE300B42B02D32224D0504794095041240A3014
:100CF3000415F88554F0740AA42872E74051C5F02E
:100D0300704D85F054D322D202C0E0E4FBFA79207F
:100D130078411203AFECF8EDF9EEFAEFFBD0E0FC0B
:100D2300E41201C812002D3001B41553D322240A52
:100D3300200420B4FE0720011AD201D32224EB6041
:100D43000424E0700EA2039201D204C203D322C38F
:100D5300020268E430040BE554300302F404A201F8
:100D630092033002EA255320D2E5A2E7920450020F
:100D7300F404B4260050D8CCC0E0EDC0E0EEC0E0EF
:100D8300EFC0E0EC1204F6D0E0FFD0E0FED0E0FDCF
:100D9300D0E0FC2004051203AF80031201213003CD
:060DA300031204B5C32297
:1003AF00EC4D6011E8497017ED33EC3304600DE448
:1003BF00FCFFFEFD22E933E8330470F802026812F5
:1003CF00023358046009E4CC2481500628500902F6
:1003DF00027228400302026FC0E0EB4A7044B980FA
:1003EF0006D0E0FB02025EEF4E701CBD8008EBFFF3
:1003FF00EAFEE9FD80EBE98DF0A4FEE5F00204983A
:10040F00E9CDF9EAFEEBFFEF89F0A4FCE5F0CE8928
:10041F00F0A42EFFE435F0CD89F0A42DFEE435F0E5
:10042F008067EF4E7005BD80D780C3EF8BF0A4AC13
:10043F00F0EE8BF0A42CFCE435F0F8EF8AF0A42C4E
:10044F00E5F038FCE433CB8DF0A42CFCE5F03BF861
:10045F00EE8AF0A42CFCE5F038F8E433CF89F0A451
:10046F002CFCE5F038CF3400CE89F0A42FFFE5F057
:10047F003EFEE433C98DF0A42EFEE5F039CD8AF0AF
:10048F00A42FFFE5F03EFEE43DFD33D0E0FB500727
:10049F000BBB000F020272EC2CFCEF33FFEE33FEAE
:0604AF00ED33FD02024ADC
:1004B500ED33EC33600A047003BD8004ECB2E7FC55
:0104C5002214
:1004C6003F8000004120000042C80000447A00003E
:1004D600461C400047C35000497424004B189680C0
:1004E6004CBEBC205A0E1BCA6753C21C749DC5AEB7
:1004F600FB60065407601C2323120524EB54386066
:100506000912051012051F1203AFECF8EDF9EEFA09
:10051600EFCB22EB12051F80F1543803241C900404
:10052600C6FE93FC0EEE93FD0EEE930ECE93FF22C7
:03000000020F15D7
:0C0F1500787FE4F6D8FD7581DA020F5CED
:10053600BB010689828A83E0225002E722BBFE02C3
:09054600E32289828A83E49322F6
:10054F00BB010CE58229F582E5833AF583E0225061
:10055F0006E92582F8E622BBFE06E92582F8E222AB
:0D056F00E58229F582E5833AF583E49322C5
:10057C00BB010689828A83F0225002F722BBFE015E
:02058C00F32258
:10058E0075F008758200EF2FFFEE33FECD33CDCC24
:10059E0033CCC58233C5829BED9AEC99E5829840A7
:1005AE000CF582EE9BFEED9AFDEC99FC0FD5F0D684
:1005BE00E4CEFBE4CDFAE4CCF9A88222B800C1B9AE
:1005CE000059BA002DEC8BF084CFCECDFCE5F0CBEC
:1005DE00F97818EF2FFFEE33FEED33FDEC33FCEB25
:1005EE0033FB10D703994004EB99FB0FD8E5E4F9E0
:1005FE00FA227818EF2FFFEE33FEED33FDEC33FCCD
:10060E00C933C910D7059BE99A4007EC9BFCE99AC0
:10061E00F90FD8E0E4C9FAE4CCFB2275F010EF2F05
:10062E00FFEE33FEED33FDCC33CCC833C810D70705
:10063E009BEC9AE899400AED9BFDEC9AFCE899F840
:0E064E000FD5F0DAE4CDFBE4CCFAE4C8F922D3
:0E065C00C3E49FFFE49EFEE49DFDE49CFC22AF
:10066A00FAE6FB0808E6F925F0F618E6CA3AF62291
:10067A00D083D082F8E4937012740193700DA3A30F
:10068A0093F8740193F5828883E473740293686023
:06069A00EFA3A3A380DF23
:1011D800EFB40A07740D1211E3740A309811A89934
:1011E800B8130CC2983098FDA899C298B811F63077
:0711F80099FDC299F599224F
:10126800EFC394094005EF940E4003BF2003D380D9
:0312780001C3228D
:100DA9008B508A518952AB50AA51A952120536FF6C
:100DB900121268500D74012552F552E43551F5515E
:100DC90080E4D200AB50AA51A952120536FF642B18
:100DD9006004EFB42D1BAB500552E552AA517002C5
:100DE900055114F9120536642D6003D38001C392AD
:100DF90000E4F556F555F554F553AB50AA51A952EF
:100E0900120536FF1212AC505CE47F0AFEFDFCAB02
:100E190056AA55A954A8531206CCC8ECC8EDC0E08F
:100E2900EEC0E0EFC0E0AB50AA51A952120536FF5F
:100E39003395E0FEEF24D0FFEE34FFFEE4FCFDD055
:100E4900E0FBD0E0FAD0E0F9EB2FF556EA3EF55594
:100E5900ED39F554EC38F55374012552F552E43562
:100E690051F551809530000AAF56AE55AD54AC538B
:0E0E7900800BAF56AE55AD54AC5312065C2242
:1006A000EF4E6012EF60010EEDBB010B89828A8371
:1006B000F0A3DFFCDEFA2289F05007F709DFFCA97E
:0C06C000F022BBFEFCF309DFFCA9F022D5
:100F2100020B8AE493A3F8E493A34003F68001F251
:100F310008DFF48029E493A3F85407240CC8C333D1
:100F4100C4540F4420C8834004F456800146F6DFA0
:100F5100E4800B01020408102040809012CCE47E52
:100F6100019360BCA3FF543F30E509541FFEE49395
:100F7100A360010ECF54C025E060A840B8E493A35C
:100F8100FAE493A3F8E493A3C8C582C8CAC583CA87
:100F9100F0A3C8C582C8CAC583CADFE9DEE780BE3F
:0112CF00001E
:1006CC00E88FF0A4CC8BF0A42CFCE98EF0A42CFCCD
:1006DC008AF0EDA42CFCEA8EF0A4CDA8F08BF0A44B
:1006EC002DCC3825F0FDE98FF0A42CCD35F0FCEBAA
:1006FC008EF0A4FEA9F0EB8FF0A4CFC5F02ECD396F
:0F070C00FEE43CFCEAA42DCE35F0FDE43CFC22DB
:0F12AC00EFC394304007EF943A50028001C32201
:00000001FF
